:100000000C942A000C9434000C9434000C943400AA
:100010000C9434000C9434000C9434000C94340090
:100020000C9434000C9434000C9434000C94340080
:100030000C9434000C9434000C9434000C94340070
:100040000C9434000C9434000C9434000C94340060
:100050000C94340011241FBECFE5D8E0DEBFCDBF25
:100060000E9418040C94EA040C940000DF93CF93D0
:10007000CDB7DEB7A6E2B0E0E6E2F0E080818068CE
:100080008C93A6E2B0E0E6E2F0E0808181608C93A0
:10009000A6E2B0E0E6E2F0E0808182608C93A6E226
:1000A000B0E0E6E2F0E0808184608C93A7E2B0E00B
:1000B000E7E2F0E080818F778C93A7E2B0E0E7E29F
:1000C000F0E0808180648C93A7E2B0E0E7E2F0E0AA
:1000D00080818F7D8C93CF91DF910895DF93CF93B3
:1000E0000F92CDB7DEB78983A7E2B0E0E7E2F0E098
:1000F0008081982F907E89818770892B8C93A6E2CE
:10010000B0E0E6E2F0E0808180648C93E6E2F0E02B
:10011000808182958F70882F90E081709070009719
:10012000A9F3A6E2B0E0E6E2F0E0808180618C9382
:10013000E4E2F0E0808191810F90CF91DF9108950A
:10014000AF92BF92CF92DF92EF92FF920F931F93E5
:10015000DF93CF93CDB7DEB760970FB6F894DEBFCD
:100160000FBECDBF69837A838B839C832D833E83AF
:100170004F835887E986FA860B871C87AD86BE8633
:10018000CF86D88A29853A854B855C858D859E8565
:10019000AF85B88979018A01E81AF90A0A0B1B0BA5
:1001A00029813A814B815C818D8D9E8DAF8DB8A167
:1001B000281B390B4A0B5B0BC801B7010E94A9042D
:1001C0007B018C0129813A814B815C818D819E81EB
:1001D000AF81B885281B390B4A0B5B0BC801B701EF
:1001E0000E94C804DA01C9019C01AD0189859A8584
:1001F000AB85BC85821B930BA40BB50BBC01CD0159
:1002000060960FB6F894DEBF0FBECDBFCF91DF91E1
:100210001F910F91FF90EF90DF90CF90BF90AF9024
:100220000895DF93CF9300D000D00F92CDB7DEB703
:1002300089836A834B838981282F30E03D832C8317
:100240008C819D818130910509F447C02C813D81CD
:10025000223031052CF48C819D81009771F0CBC048
:100260002C813D812230310509F467C08C819D814C
:100270008330910509F491C0BEC08B818130A1F417
:10028000AAE3B0E0EAE3F0E08081482F8A81282FDA
:1002900030E081E090E0022E02C0880F991F0A949E
:1002A000E2F7842B8C93A7C08B81882309F0A3C02D
:1002B000AAE3B0E0EAE3F0E08081482F8A81282FAA
:1002C00030E081E090E0022E02C0880F991F0A946E
:1002D000E2F7809584238C938EC08B818130A1F4CA
:1002E000A7E3B0E0E7E3F0E08081482F8A81282F80
:1002F00030E081E090E0022E02C0880F991F0A943E
:10030000E2F7842B8C9377C08B81882309F073C02C
:10031000A7E3B0E0E7E3F0E08081482F8A81282F4F
:1003200030E081E090E0022E02C0880F991F0A940D
:10033000E2F7809584238C935EC08B818130A1F499
:10034000A4E3B0E0E4E3F0E08081482F8A81282F25
:1003500030E081E090E0022E02C0880F991F0A94DD
:10036000E2F7842B8C9347C08B81882309F043C02C
:10037000A4E3B0E0E4E3F0E08081482F8A81282FF5
:1003800030E081E090E0022E02C0880F991F0A94AD
:10039000E2F7809584238C932EC08B818130A1F469
:1003A000A1E3B0E0E1E3F0E08081482F8A81282FCB
:1003B00030E081E090E0022E02C0880F991F0A947D
:1003C000E2F7842B8C9317C08B818823A1F4A1E3DF
:1003D000B0E0E1E3F0E08081482F8A81282F30E00F
:1003E00081E090E0022E02C0880F991F0A94E2F784
:1003F000809584238C930F900F900F900F900F9007
:10040000CF91DF910895DF93CF9300D000D00F926A
:10041000CDB7DEB789836A834B838981282F30E08B
:100420003D832C838C819D818130910509F447C0E7
:100430002C813D81223031052CF48C819D810097E7
:1004400071F0CBC02C813D812230310509F467C0A9
:100450008C819D818330910509F491C0BEC08B8150
:100460008130A1F4ABE3B0E0EBE3F0E08081482F12
:100470008A81282F30E081E090E0022E02C0880FB0
:10048000991F0A94E2F7842B8C93A7C08B81882351
:1004900009F0A3C0ABE3B0E0EBE3F0E08081482FCC
:1004A0008A81282F30E081E090E0022E02C0880F80
:1004B000991F0A94E2F7809584238C938EC08B81D8
:1004C0008130A1F4A8E3B0E0E8E3F0E08081482FB8
:1004D0008A81282F30E081E090E0022E02C0880F50
:1004E000991F0A94E2F7842B8C9377C08B81882321
:1004F00009F073C0A8E3B0E0E8E3F0E08081482FA2
:100500008A81282F30E081E090E0022E02C0880F1F
:10051000991F0A94E2F7809584238C935EC08B81A7
:100520008130A1F4A5E3B0E0E5E3F0E08081482F5D
:100530008A81282F30E081E090E0022E02C0880FEF
:10054000991F0A94E2F7842B8C9347C08B818823F0
:1005500009F043C0A5E3B0E0E5E3F0E08081482F77
:100560008A81282F30E081E090E0022E02C0880FBF
:10057000991F0A94E2F7809584238C932EC08B8177
:100580008130A1F4A2E3B0E0E2E3F0E08081482F03
:100590008A81282F30E081E090E0022E02C0880F8F
:1005A000991F0A94E2F7842B8C9317C08B818823C0
:1005B000A1F4A2E3B0E0E2E3F0E08081482F8A8179
:1005C000282F30E081E090E0022E02C0880F991FB2
:1005D0000A94E2F7809584238C930F900F900F90EC
:1005E0000F900F90CF91DF910895DF93CF9300D0BC
:1005F00000D0CDB7DEB789836A838981282F30E0A8
:100600003C832B838B819C818130910521F12B814F
:100610003C81223031052CF48B819C81009761F064
:1006200046C02B813C812230310521F18B819C8198
:100630008330910571F13BC08A81813029F4EAE36E
:10064000F0E08FEF808333C08A81882381F5EAE36D
:10065000F0E010822CC08A81813029F4E7E3F0E0D9
:100660008FEF808324C08A81882309F5E7E3F0E0D7
:1006700010821DC08A81813029F4E4E3F0E08FEF1D
:10068000808315C08A81882391F4E4E3F0E010822E
:100690000EC08A81813029F4E1E3F0E08FEF80839E
:1006A00006C08A81882319F4E1E3F0E010820F90FC
:1006B0000F900F900F90CF91DF910895DF93CF931C
:1006C00000D000D0CDB7DEB789836A838981282F17
:1006D00030E03C832B838B819C8181309105D1F06C
:1006E0002B813C81223031052CF48B819C81009739
:1006F00061F01EC02B813C812230310581F08B815D
:100700009C818330910581F013C0EBE3F0E08A8196
:1007100080830EC0E8E3F0E08A81808309C0E5E3CE
:10072000F0E08A81808304C0E2E3F0E08A81808384
:100730000F900F900F900F90CF91DF910895DF935E
:10074000CF9300D000D00F92CDB7DEB78A836B83F2
:100750008A81282F30E03D832C834C815D8141309C
:10076000510541F18C819D818230910534F42C81B9
:100770003D812115310561F052C04C815D814230CF
:10078000510551F18C819D8183309105B9F147C0AC
:10079000E9E3F0E08081282F30E08B81882F90E022
:1007A000A90102C0559547958A95E2F7CA01817063
:1007B000898335C0E6E3F0E08081282F30E08B812B
:1007C000882F90E0A90102C0559547958A95E2F7D8
:1007D000CA018170898323C0E3E3F0E08081282F80
:1007E00030E08B81882F90E0A90102C05595479594
:1007F0008A95E2F7CA018170898311C0E0E3F0E0D5
:100800008081282F30E08B81882F90E0A90102C0E1
:10081000559547958A95E2F7CA0181708983898148
:100820000F900F900F900F900F90CF91DF91089540
:10083000DF93CF9300D000D000D0CDB7DEB781E0FA
:1008400061E00E94F50281E060E00E945E0380E0CA
:1008500060E040E00E9411010E9436001E821D826D
:1008600019821A821B821C8280E00E946E009E8385
:100870008D838D819E81CC01A0E0B0E028E833E13A
:1008800040E050E0BC01CD010E94A904DC01CB0195
:10089000072E7AE0B695A795979587957A95D1F723
:1008A000702D89839A83AB83BC8389819A81AB81C4
:1008B000BC818C3B22E0920720E0A20720E0B20737
:1008C00080F481E060E041E00E94030281E061E0A9
:1008D00040E00E94030281E062E040E00E940302E7
:1008E000C3CF89819A81AB81BC818C3B22E0920786
:1008F00020E0A20720E0B207E0F489819A81AB8171
:10090000BC81843F21E0920720E0A20720E0B207EB
:1009100080F081E060E040E00E94030281E061E05D
:1009200041E00E94030281E062E040E00E94030295
:100930009BCF81E060E040E00E94030281E061E043
:1009400040E00E94030281E062E041E00E94030275
:100950008BCF629FD001739FF001829FE00DF11D4C
:10096000649FE00DF11D929FF00D839FF00D749F29
:10097000F00D659FF00D9927729FB00DE11DF91FD5
:10098000639FB00DE11DF91FBD01CF011124089532
:10099000A1E21A2EAA1BBB1BFD010DC0AA1FBB1F83
:1009A000EE1FFF1FA217B307E407F50720F0A21BF5
:1009B000B30BE40BF50B661F771F881F991F1A9462
:1009C00069F760957095809590959B01AC01BD018C
:0809D000CF010895F894FFCF58
:00000001FF
