:100000000C942A000C9434000C9434000C943400AA
:100010000C9434000C9434000C9434000C94340090
:100020000C9434000C9434000C9434000C94340080
:100030000C9434000C9434000C9434000C94340070
:100040000C9434000C9434000C9434000C94340060
:100050000C94340011241FBECFE5D8E0DEBFCDBF25
:100060000E94F8000C9401010C940000DF93CF93E0
:10007000CDB7DEB7A5E5B0E0E5E5F0E080818160D1
:100080008C93A5E5B0E0E5E5F0E080818D7F8C9371
:10009000A5E5B0E0E5E5F0E0808184608C93A5E51E
:1000A000B0E0E5E5F0E08081877F8C93A4E5B0E0E7
:1000B000E4E5F0E080818F7B8C93CF91DF91089510
:1000C000DF93CF9300D00F92CDB7DEB789838981BC
:1000D000282F30E03B832A838A819B8181309105E0
:1000E00089F02A813B8122303105A1F08A819B81F0
:1000F0000097B9F4ABE5B0E0EBE5F0E08081806417
:100100008C930FC0ABE5B0E0EBE5F0E08081806858
:100110008C9307C0ABE5B0E0EBE5F0E08081806256
:100120008C930F900F900F90CF91DF910895DF93F4
:10013000CF9300D00F92CDB7DEB789838981282F66
:1001400030E03B832A838A819B818130910589F04D
:100150002A813B8122303105A1F08A819B81009761
:10016000B9F4ABE5B0E0EBE5F0E080818F7B8C93F8
:100170000FC0ABE5B0E0EBE5F0E080818F778C93CA
:1001800007C0ABE5B0E0EBE5F0E080818F7D8C93BC
:100190000F900F900F90CF91DF910895DF93CF9341
:1001A00000D00F92CDB7DEB789838981282F30E048
:1001B0003B832A838A819B81009769F02A813B8156
:1001C0002130310579F4AFE5B0E0EFE5F0E0808172
:1001D00080688C9307C0AFE5B0E0EFE5F0E0808188
:1001E0008F778C930F900F900F90CF91DF910895A0
:1001F000DF93CF93CDB7DEB780E090E0CF91DF9172
:060200000895F894FFCF01
:00000001FF
