:100000000C942A000C943C000C943C000C943C0092
:100010000C943C000C943C000C943C000C943C0070
:100020000C943C000C943C000C943C000C94360561
:100030000C943C000C943C000C943C000C943C0050
:100040000C943C000C943C000C943C000C943C0040
:100050000C943C0011241FBECFE5D8E0DEBFCDBF1D
:1000600010E0A0E6B0E001C01D92A236B107E1F7B2
:100070000E9463050C94F8050C940000DF93CF9365
:10008000CDB7DEB7A6E2B0E0E6E2F0E080818068BE
:100090008C93A6E2B0E0E6E2F0E0808181608C9390
:1000A000A6E2B0E0E6E2F0E0808182608C93A6E216
:1000B000B0E0E6E2F0E0808184608C93A7E2B0E0FB
:1000C000E7E2F0E080818F778C93A7E2B0E0E7E28F
:1000D000F0E0808180648C93A7E2B0E0E7E2F0E09A
:1000E00080818F7D8C93CF91DF910895DF93CF93A3
:1000F0000F92CDB7DEB78983A7E2B0E0E7E2F0E088
:100100008081982F907E89818770892B8C93A6E2BD
:10011000B0E0E6E2F0E0808180648C93E6E2F0E01B
:10012000808182958F70882F90E081709070009709
:10013000A9F3A6E2B0E0E6E2F0E0808180618C9372
:10014000E4E2F0E0808191810F90CF91DF910895FA
:10015000AF92BF92CF92DF92EF92FF920F931F93D5
:10016000DF93CF93CDB7DEB760970FB6F894DEBFBD
:100170000FBECDBF69837A838B839C832D833E839F
:100180004F835887E986FA860B871C87AD86BE8623
:10019000CF86D88A29853A854B855C858D859E8555
:1001A000AF85B88979018A01E81AF90A0A0B1B0B95
:1001B00029813A814B815C818D8D9E8DAF8DB8A157
:1001C000281B390B4A0B5B0BC801B7010E94B7050E
:1001D0007B018C0129813A814B815C818D819E81DB
:1001E000AF81B885281B390B4A0B5B0BC801B701DF
:1001F0000E94D605DA01C9019C01AD0189859A8565
:10020000AB85BC85821B930BA40BB50BBC01CD0148
:1002100060960FB6F894DEBF0FBECDBFCF91DF91D1
:100220001F910F91FF90EF90DF90CF90BF90AF9014
:100230000895DF93CF9300D000D00F92CDB7DEB7F3
:1002400089836A834B838981282F30E03D832C8307
:100250008C819D818130910509F447C02C813D81BD
:10026000223031052CF48C819D81009771F0CBC038
:100270002C813D812230310509F467C08C819D813C
:100280008330910509F491C0BEC08B818130A1F407
:10029000AAE3B0E0EAE3F0E08081482F8A81282FCA
:1002A00030E081E090E0022E02C0880F991F0A948E
:1002B000E2F7842B8C93A7C08B81882309F0A3C01D
:1002C000AAE3B0E0EAE3F0E08081482F8A81282F9A
:1002D00030E081E090E0022E02C0880F991F0A945E
:1002E000E2F7809584238C938EC08B818130A1F4BA
:1002F000A7E3B0E0E7E3F0E08081482F8A81282F70
:1003000030E081E090E0022E02C0880F991F0A942D
:10031000E2F7842B8C9377C08B81882309F073C01C
:10032000A7E3B0E0E7E3F0E08081482F8A81282F3F
:1003300030E081E090E0022E02C0880F991F0A94FD
:10034000E2F7809584238C935EC08B818130A1F489
:10035000A4E3B0E0E4E3F0E08081482F8A81282F15
:1003600030E081E090E0022E02C0880F991F0A94CD
:10037000E2F7842B8C9347C08B81882309F043C01C
:10038000A4E3B0E0E4E3F0E08081482F8A81282FE5
:1003900030E081E090E0022E02C0880F991F0A949D
:1003A000E2F7809584238C932EC08B818130A1F459
:1003B000A1E3B0E0E1E3F0E08081482F8A81282FBB
:1003C00030E081E090E0022E02C0880F991F0A946D
:1003D000E2F7842B8C9317C08B818823A1F4A1E3CF
:1003E000B0E0E1E3F0E08081482F8A81282F30E0FF
:1003F00081E090E0022E02C0880F991F0A94E2F774
:10040000809584238C930F900F900F900F900F90F6
:10041000CF91DF910895DF93CF9300D000D00F925A
:10042000CDB7DEB789836A834B838981282F30E07B
:100430003D832C838C819D818130910509F447C0D7
:100440002C813D81223031052CF48C819D810097D7
:1004500071F0CBC02C813D812230310509F467C099
:100460008C819D818330910509F491C0BEC08B8140
:100470008130A1F4ABE3B0E0EBE3F0E08081482F02
:100480008A81282F30E081E090E0022E02C0880FA0
:10049000991F0A94E2F7842B8C93A7C08B81882341
:1004A00009F0A3C0ABE3B0E0EBE3F0E08081482FBC
:1004B0008A81282F30E081E090E0022E02C0880F70
:1004C000991F0A94E2F7809584238C938EC08B81C8
:1004D0008130A1F4A8E3B0E0E8E3F0E08081482FA8
:1004E0008A81282F30E081E090E0022E02C0880F40
:1004F000991F0A94E2F7842B8C9377C08B81882311
:1005000009F073C0A8E3B0E0E8E3F0E08081482F91
:100510008A81282F30E081E090E0022E02C0880F0F
:10052000991F0A94E2F7809584238C935EC08B8197
:100530008130A1F4A5E3B0E0E5E3F0E08081482F4D
:100540008A81282F30E081E090E0022E02C0880FDF
:10055000991F0A94E2F7842B8C9347C08B818823E0
:1005600009F043C0A5E3B0E0E5E3F0E08081482F67
:100570008A81282F30E081E090E0022E02C0880FAF
:10058000991F0A94E2F7809584238C932EC08B8167
:100590008130A1F4A2E3B0E0E2E3F0E08081482FF3
:1005A0008A81282F30E081E090E0022E02C0880F7F
:1005B000991F0A94E2F7842B8C9317C08B818823B0
:1005C000A1F4A2E3B0E0E2E3F0E08081482F8A8169
:1005D000282F30E081E090E0022E02C0880F991FA2
:1005E0000A94E2F7809584238C930F900F900F90DC
:1005F0000F900F90CF91DF910895DF93CF9300D0AC
:1006000000D0CDB7DEB789836A838981282F30E097
:100610003C832B838B819C818130910521F12B813F
:100620003C81223031052CF48B819C81009761F054
:1006300046C02B813C812230310521F18B819C8188
:100640008330910571F13BC08A81813029F4EAE35E
:10065000F0E08FEF808333C08A81882381F5EAE35D
:10066000F0E010822CC08A81813029F4E7E3F0E0C9
:100670008FEF808324C08A81882309F5E7E3F0E0C7
:1006800010821DC08A81813029F4E4E3F0E08FEF0D
:10069000808315C08A81882391F4E4E3F0E010821E
:1006A0000EC08A81813029F4E1E3F0E08FEF80838E
:1006B00006C08A81882319F4E1E3F0E010820F90EC
:1006C0000F900F900F90CF91DF910895DF93CF930C
:1006D00000D000D0CDB7DEB789836A838981282F07
:1006E00030E03C832B838B819C8181309105D1F05C
:1006F0002B813C81223031052CF48B819C81009729
:1007000061F01EC02B813C812230310581F08B814C
:100710009C818330910581F013C0EBE3F0E08A8186
:1007200080830EC0E8E3F0E08A81808309C0E5E3BE
:10073000F0E08A81808304C0E2E3F0E08A81808374
:100740000F900F900F900F90CF91DF910895DF934E
:10075000CF9300D000D00F92CDB7DEB78A836B83E2
:100760008A81282F30E03D832C834C815D8141308C
:10077000510541F18C819D818230910534F42C81A9
:100780003D812115310561F052C04C815D814230BF
:10079000510551F18C819D8183309105B9F147C09C
:1007A000E9E3F0E08081282F30E08B81882F90E012
:1007B000A90102C0559547958A95E2F7CA01817053
:1007C000898335C0E6E3F0E08081282F30E08B811B
:1007D000882F90E0A90102C0559547958A95E2F7C8
:1007E000CA018170898323C0E3E3F0E08081282F70
:1007F00030E08B81882F90E0A90102C05595479584
:100800008A95E2F7CA018170898311C0E0E3F0E0C4
:100810008081282F30E08B81882F90E0A90102C0D1
:10082000559547958A95E2F7CA0181708983898138
:100830000F900F900F900F900F90CF91DF91089530
:10084000DF93CF9300D00F92CDB7DEB78983898134
:10085000282F30E03B832A838A819B81009769F0AF
:100860002A813B812130310579F4AFE5B0E0EFE535
:10087000F0E0808180688C9307C0AFE5B0E0EFE5E1
:10088000F0E080818F778C930F900F900F90CF9135
:10089000DF910895DF93CF93CDB7DEB7A3E5B0E046
:1008A000E3E5F0E080818F7B8C93A3E5B0E0E3E5A6
:1008B000F0E0808188608C93A3E5B0E0E3E5F0E0B0
:1008C00080818E7F8C93A3E5B0E0E3E5F0E080814A
:1008D00082608C93A3E5B0E0E3E5F0E080818B7F5C
:1008E0008C93A3E5B0E0E3E5F0E0808180618C9338
:1008F000A3E5B0E0E3E5F0E080818F7D8C93CF91BC
:10090000DF910895DF93CF93CDB7DEB7A9E5B0E0CF
:10091000E9E5F0E0808181608C93CF91DF910895CB
:10092000DF93CF93CDB7DEB7A9E5B0E0E9E5F0E01E
:1009300080818E7F8C93CF91DF910895DF93CF9349
:100940000F92CDB7DEB78983E2E5F0E0898180833D
:100950000F90CF91DF910895DF93CF930F92CDB792
:10096000DEB78983ECE5F0E0898180830F90CF9139
:10097000DF910895DF93CF9300D0CDB7DEB79A8390
:10098000898389819A8190936100809360000F90A0
:100990000F90CF91DF910895DF93CF93CDB7DEB75E
:1009A000AFE4B0E0EFE4F0E080818E7F8C93AFE4C1
:1009B000B0E0EFE4F0E0808182608C93AEE4B0E0E0
:1009C000EEE4F0E0808188608C93AEE4B0E0EEE489
:1009D000F0E0808180618C93AEE4B0E0EEE4F0E082
:1009E00080818E7F8C93AEE4B0E0EEE4F0E0808115
:1009F00082608C93AEE4B0E0EEE4F0E080818B7F27
:100A00008C93AFE4B0E0EFE4F0E080818F7B8C93D7
:100A1000AFE4B0E0EFE4F0E0808180688C93CF91A8
:100A2000DF910895DF93CF9300D0CDB7DEB79A83DF
:100A30008983E6E4F0E089819A81918380830F9035
:100A40000F90CF91DF910895DF93CF9300D0CDB772
:100A5000DEB79A838983EAE4F0E089819A81918301
:100A600080830F900F90CF91DF9108951F920F9286
:100A70000FB60F9211242F933F934F935F936F9371
:100A80007F938F939F93AF93BF93EF93FF93DF93E6
:100A9000CF93CDB7DEB7E0916000F091610009958A
:100AA000CF91DF91FF91EF91BF91AF919F918F9186
:100AB0007F916F915F914F913F912F910F900FBE5A
:100AC0000F901F901895AF92BF92CF92DF92EF9246
:100AD000FF920F931F93DF93CF93CDB7DEB70E94A2
:100AE0003E000E94CC0483E065E041E00E941901D1
:100AF00080E060E040E00E94190180E29EE40E94F4
:100B0000120580E00E947600CC01A0E0B0E000D0A9
:100B100000D0EDB7FEB7319680839183A283B38373
:100B20006FEF73E080E090E020E030E040E050E0E4
:100B30000F2EF4ECEF2EF9E0FF2EF0E00F2FF0E097
:100B40001F2FF02D0F2EF4EFAF2EF1E0BF2EF0E0AF
:100B5000CF2EF0E0DF2EF02D0E94A8000F900F9016
:100B60000F900F90DC01CB010E942405CACF629F39
:100B7000D001739FF001829FE00DF11D649FE00D95
:100B8000F11D929FF00D839FF00D749FF00D659FF6
:100B9000F00D9927729FB00DE11DF91F639FB00DF5
:100BA000E11DF91FBD01CF0111240895A1E21A2E04
:100BB000AA1BBB1BFD010DC0AA1FBB1FEE1FFF1F01
:100BC000A217B307E407F50720F0A21BB30BE40B51
:100BD000F50B661F771F881F991F1A9469F7609598
:100BE0007095809590959B01AC01BD01CF01089552
:040BF000F894FFCFA7
:00000001FF
