:100000000C942A000C9434000C9434000C943400AA
:100010000C9434000C9434000C9434000C94340090
:100020000C9434000C9434000C9434000C94340080
:100030000C9434000C9434000C9434000C94340070
:100040000C9434000C9434000C9434000C94340060
:100050000C94340011241FBECFE5D8E0DEBFCDBF25
:100060000E94A2030C94AC030C940000DF93CF9386
:1000700000D000D00F92CDB7DEB789836A834B835F
:100080008981282F30E03D832C838C819D818130B4
:10009000910509F447C02C813D81223031052CF4B3
:1000A0008C819D81009771F0CBC02C813D812230E5
:1000B000310509F467C08C819D818330910509F475
:1000C00091C0BEC08B818130A1F4AAE3B0E0EAE325
:1000D000F0E08081482F8A81282F30E081E090E095
:1000E000022E02C0880F991F0A94E2F7842B8C938A
:1000F000A7C08B81882309F0A3C0AAE3B0E0EAE39C
:10010000F0E08081482F8A81282F30E081E090E064
:10011000022E02C0880F991F0A94E2F7809584236B
:100120008C938EC08B818130A1F4A7E3B0E0E7E32C
:10013000F0E08081482F8A81282F30E081E090E034
:10014000022E02C0880F991F0A94E2F7842B8C9329
:1001500077C08B81882309F073C0A7E3B0E0E7E3A1
:10016000F0E08081482F8A81282F30E081E090E004
:10017000022E02C0880F991F0A94E2F7809584230B
:100180008C935EC08B818130A1F4A4E3B0E0E4E302
:10019000F0E08081482F8A81282F30E081E090E0D4
:1001A000022E02C0880F991F0A94E2F7842B8C93C9
:1001B00047C08B81882309F043C0A4E3B0E0E4E3A7
:1001C000F0E08081482F8A81282F30E081E090E0A4
:1001D000022E02C0880F991F0A94E2F780958423AB
:1001E0008C932EC08B818130A1F4A1E3B0E0E1E3D8
:1001F000F0E08081482F8A81282F30E081E090E074
:10020000022E02C0880F991F0A94E2F7842B8C9368
:1002100017C08B818823A1F4A1E3B0E0E1E3F0E013
:100220008081482F8A81282F30E081E090E0022EE3
:1002300002C0880F991F0A94E2F7809584238C935B
:100240000F900F900F900F900F90CF91DF91089526
:10025000DF93CF9300D000D00F92CDB7DEB7898364
:100260006A834B838981282F30E03D832C838C81E6
:100270009D818130910509F447C02C813D81223058
:1002800031052CF48C819D81009771F0CBC02C81BD
:100290003D812230310509F467C08C819D81833016
:1002A000910509F491C0BEC08B818130A1F4ABE30C
:1002B000B0E0EBE3F0E08081482F8A81282F30E026
:1002C00081E090E0022E02C0880F991F0A94E2F7A5
:1002D000842B8C93A7C08B81882309F0A3C0ABE348
:1002E000B0E0EBE3F0E08081482F8A81282F30E0F6
:1002F00081E090E0022E02C0880F991F0A94E2F775
:10030000809584238C938EC08B818130A1F4A8E3E7
:10031000B0E0E8E3F0E08081482F8A81282F30E0C8
:1003200081E090E0022E02C0880F991F0A94E2F744
:10033000842B8C9377C08B81882309F073C0A8E34A
:10034000B0E0E8E3F0E08081482F8A81282F30E098
:1003500081E090E0022E02C0880F991F0A94E2F714
:10036000809584238C935EC08B818130A1F4A5E3BA
:10037000B0E0E5E3F0E08081482F8A81282F30E06B
:1003800081E090E0022E02C0880F991F0A94E2F7E4
:10039000842B8C9347C08B81882309F043C0A5E34D
:1003A000B0E0E5E3F0E08081482F8A81282F30E03B
:1003B00081E090E0022E02C0880F991F0A94E2F7B4
:1003C000809584238C932EC08B818130A1F4A2E38D
:1003D000B0E0E2E3F0E08081482F8A81282F30E00E
:1003E00081E090E0022E02C0880F991F0A94E2F784
:1003F000842B8C9317C08B818823A1F4A2E3B0E0F7
:10040000E2E3F0E08081482F8A81282F30E081E00C
:1004100090E0022E02C0880F991F0A94E2F780959F
:1004200084238C930F900F900F900F900F90CF918B
:10043000DF910895DF93CF9300D000D0CDB7DEB722
:1004400089836A838981282F30E03C832B838B81C9
:100450009C818130910521F12B813C812230310535
:100460002CF48B819C81009761F046C02B813C81EC
:100470002230310521F18B819C818330910571F10E
:100480003BC08A81813029F4EAE3F0E08FEF80837A
:1004900033C08A81882381F5EAE3F0E010822CC022
:1004A0008A81813029F4E7E3F0E08FEF808324C074
:1004B0008A81882309F5E7E3F0E010821DC08A8174
:1004C000813029F4E4E3F0E08FEF808315C08A8166
:1004D000882391F4E4E3F0E010820EC08A81813039
:1004E00029F4E1E3F0E08FEF808306C08A8188235E
:1004F00019F4E1E3F0E010820F900F900F900F904D
:10050000CF91DF910895DF93CF9300D000D0CDB786
:10051000DEB789836A838981282F30E03C832B836F
:100520008B819C8181309105D1F02B813C812230DF
:1005300031052CF48B819C81009761F01EC02B81CA
:100540003C812230310581F08B819C818330910583
:1005500081F013C0EBE3F0E08A8180830EC0E8E312
:10056000F0E08A81808309C0E5E3F0E08A8180833E
:1005700004C0E2E3F0E08A8180830F900F900F9037
:100580000F90CF91DF910895DF93CF9300D000D0EB
:100590000F92CDB7DEB78A836B838A81282F30E034
:1005A0003D832C834C815D814130510541F18C812B
:1005B0009D818230910534F42C813D8121153105D6
:1005C00061F052C04C815D814230510551F18C8106
:1005D0009D8183309105B9F147C0E9E3F0E0808166
:1005E000282F30E08B81882F90E0A90102C055951B
:1005F00047958A95E2F7CA018170898335C0E6E3A1
:10060000F0E08081282F30E08B81882F90E0A901D5
:1006100002C0559547958A95E2F7CA018170898392
:1006200023C0E3E3F0E08081282F30E08B81882F26
:1006300090E0A90102C0559547958A95E2F7CA0155
:100640008170898311C0E0E3F0E08081282F30E0E1
:100650008B81882F90E0A90102C0559547958A9516
:10066000E2F7CA018170898389810F900F900F9002
:100670000F900F90CF91DF910895DF93CF930F925A
:10068000CDB7DEB7198289818068898389818F7BA4
:10069000898389818F7E898389818F7D89838981FF
:1006A000877F898389818260898389818460898346
:1006B000E0E4F0E089818083AAE2B0E0EAE2F0E0E1
:1006C00080818B7F8C93E9E2F0E083E38083AAE270
:1006D000B0E0EAE2F0E0808180618C93AAE2B0E0D1
:1006E000EAE2F0E0808188608C930F90CF91DF91F7
:1006F0000895DF93CF930F92CDB7DEB78983EBE2F6
:10070000F0E08081829586958770882F90E08170D7
:1007100090700097A1F3ECE2F0E0898180830F9064
:10072000CF91DF910895DF93CF93CDB7DEB7EBE2A2
:10073000F0E080818823DCF7ECE2F0E08081CF916B
:10074000DF910895DF93CF93CDB7DEB70E943D03CD
:0C07500081E40E947903FCCFF894FFCFF5
:00000001FF
